:020000040800F2
:1000000000000C202DB60108859001088D90010894
:10001000AD900108B5900108BD9001087DB60108BA
:1000200000000000000000000000000071630808EC
:10003000C590010800000000016308086D910108E7
:100040007DB601087DB601087DB601087DB60108C0
:100050007DB601087DB601087DB601087DB60108B0
:100060007DB601087DB601087DB601087DB60108A0
:100070007DB601087DB601087DB601087DB6010890
:100080007DB601087DB601087DB601087DB6010880
:100090007DB601087DB601087DB601087DB6010870
:1000A0007DB60108D5900108E59001087DB60108EC
:1000B0007DB601087DB601087DB601087DB6010850
:1000C0007DB60108F5900108099101087DB6010887
:1000D0007DB601087DB601087DB601087DB6010830
:1000E0007DB601087DB601087DB601087DB6010820
:1000F0007DB601087DB601087DB601087DB6010810
:100100007DB601087DB601087DB601087DB60108FF
:100110007DB601087DB601087DB601087DB60108EF
:100120007DB601087DB601087DB601087DB60108DF
:100130001D910108319101087DB601087DB60108C5
:100140007DB601087DB601087DB601087DB60108BF
:100150007DB601087DB601087DB601087DB60108AF
:100160007DB601087DB601087DB601087DB601089F
:100170007DB601087DB601087DB601087DB601088F
:100180007DB601087DB601087DB601087DB601087F
:100190007DB601087DB601087DB601087DB601086F
:1001A0007DB601087DB601087DB601087DB601085F
:1001B0007DB601087DB60108459101087DB60108AC
:1001C0007DB601087DB601087DB601087DB601083F
:1001D0007DB601087DB601087DB601087DB601082F
:1001E0007DB601087DB601087DB601087DB601081F
:1001F0007DB601087DB601087DB601087DB601080F
:100200007DB601087DB601087DB601087DB60108FE
:100210007DB601087DB601087DB601087DB60108EE
:10022000599101087DB601087DB601087DB6010827
:080230007DB601087DB601084E
:1002400010B5054C237833B9044B13B10448AFF310
:1002500000800123237010BDB007002000000000C3
:1002600078D6090808B5034B1BB103490348AFF31F
:10027000008008BD00000000B407002078D60908FF
:1002800010F8012B11F8013B012A28BF9A42F7D040
:10029000D01A7047034613F8012B002AFBD1181A15
:1002A0000138704781F0004102E000BF83F0004355
:1002B00030B54FEA41044FEA430594EA050F08BF01
:1002C00090EA020F1FBF54EA000C55EA020C7FEAC5
:1002D000645C7FEA655C00F0E2804FEA5454D4EB42
:1002E0005555B8BF6D420CDD2C4480EA020281EA0C
:1002F000030382EA000083EA010180EA020281EA44
:100300000303362D88BF30BD11F0004F4FEA013195
:100310004FF4801C4CEA113102D0404261EB4101A4
:1003200013F0004F4FEA03334CEA133302D052422A
:1003300063EB430394EA050F00F0A780A4F10104E6
:10034000D5F1200E0DDB02FA0EFC22FA05F2801820
:1003500041F1000103FA0EF2801843FA05F3594106
:100360000EE0A5F120050EF1200E012A03FA0EFC85
:1003700028BF4CF0020C43FA05F3C01851EBE371AF
:1003800001F0004507D54FF0000EDCF1000C7EEBCC
:1003900000006EEB0101B1F5801F1BD3B1F5001F0A
:1003A0000CD349085FEA30004FEA3C0C04F1010429
:1003B0004FEA445212F5800F80F09A80BCF1004F52
:1003C00008BF5FEA500C50F1000041EB045141EAD4
:1003D000050130BD5FEA4C0C404141EB0101013C9D
:1003E00028BFB1F5801FE9D291F0000F04BF01468C
:1003F0000020B1FA81F308BF2033A3F10B03B3F15E
:1004000020020CDA0C3208DD02F1140CC2F10C02ED
:1004100001FA0CF021FA02F10CE002F11402D8BF4B
:10042000C2F1200C01FA02F120FA0CFCDCBF41EA17
:100430000C019040E41AA2BF01EB0451294330BDE6
:100440006FEA04041F3C1CDA0C340EDC04F11404C3
:10045000C4F1200220FA04F001FA02F340EA03009A
:1004600021FA04F345EA030130BDC4F10C04C4F1E0
:10047000200220FA02F001FA04F340EA03002946C0
:1004800030BD21FA04F0294630BD94F0000F83F40A
:10049000801306BF81F480110134013D4EE77FEAED
:1004A000645C18BF7FEA655C29D094EA050F08BF39
:1004B00090EA020F05D054EA000C04BF194610461A
:1004C00030BD91EA030F1EBF0021002030BD5FEA5E
:1004D000545C05D14000494128BF41F0004130BD86
:1004E00014F580043CBF01F5801130BD01F00045DA
:1004F00045F0FE4141F470014FF0000030BD7FEA4D
:10050000645C1ABF194610467FEA655C1CBF0B4647
:10051000024650EA013406BF52EA033591EA030F5E
:1005200041F4002130BD00BF90F0000F04BF002156
:10053000704730B54FF4806404F132044FF0000589
:100540004FF0000150E700BF90F0000F04BF002102
:10055000704730B54FF4806404F1320410F0004568
:1005600048BF40424FF000013EE700BF42004FEA63
:10057000E2014FEA31014FEA02701FBF12F07F43E0
:1005800093F07F4F81F06051704732F07F4208BF97
:10059000704793F07F4F04BF41F40021704730B59E
:1005A0004FF4607401F0004521F000411CE700BFEA
:1005B00050EA010208BF704730B54FF000050AE06D
:1005C00050EA010208BF704730B511F0004502D56E
:1005D000404261EB41014FF4806404F132045FEA70
:1005E000915C3FF4D8AE4FF003025FEADC0C18BF19
:1005F00003325FEADC0C18BF033202EBDC02C2F10B
:10060000200300FA03FC20FA02F001FA03FE40EA9C
:100610000E0021FA02F11444BDE600BF70B54FF0A0
:10062000FF0C4CF4E06C1CEA11541DBF1CEA13557E
:1006300094EA0C0F95EA0C0F00F0DEF82C4481EAE6
:10064000030621EA4C5123EA4C5350EA013518BF06
:1006500052EA033541F4801143F4801338D0A0FBF3
:1006600002CE4FF00005E1FB02E506F00042E0FBA0
:1006700003E54FF00006E1FB03569CF0000F18BFA6
:100680004EF0010EA4F1FF04B6F5007F64F540744E
:1006900004D25FEA4E0E6D4146EB060642EAC621E1
:1006A00041EA55514FEAC52040EA5E504FEACE2E4E
:1006B000B4F1FD0C88BFBCF5E06F1ED8BEF1004F51
:1006C00008BF5FEA500E50F1000041EB045170BDCD
:1006D00006F0004646EA010140EA020081EA030111
:1006E000B4EB5C04C2BFD4EB0C0541EA045170BD0D
:1006F00041F480114FF0000E013C00F3AB8014F187
:10070000360FDEBF002001F0004170BDC4F10004CF
:10071000203C35DA0C341BDC04F11404C4F1200550
:1007200000FA05F320FA04F001FA05F240EA0200AB
:1007300001F0004221F0004110EBD37021FA04F6E1
:1007400042EB06015EEA430E08BF20EAD37070BD9B
:10075000C4F10C04C4F1200500FA04F320FA05F0FA
:1007600001FA04F240EA020001F0004110EBD370FC
:1007700041F100015EEA430E08BF20EAD37070BD6C
:10078000C4F1200500FA05F24EEA020E20FA04F345
:1007900001FA05F243EA020321FA04F001F00041F4
:1007A00021FA04F220EA020000EBD3705EEA430E65
:1007B00008BF20EAD37070BD94F0000F0FD101F094
:1007C0000046400041EB010111F4801F08BF013CCD
:1007D000F7D041EA060195F0000F18BF704703F00B
:1007E0000046520043EB030313F4801F08BF013D92
:1007F000F7D043EA0603704794EA0C0F0CEA13554E
:1008000018BF95EA0C0F0CD050EA410618BF52EA07
:100810004306D1D181EA030101F000414FF000000D
:1008200070BD50EA410606BF1046194652EA43061B
:1008300019D094EA0C0F02D150EA013613D195EA8F
:100840000C0F05D152EA03361CBF104619460AD1D7
:1008500081EA030101F0004141F0FE4141F47001E1
:100860004FF0000070BD41F0FE4141F4780170BDD1
:1008700070B54FF0FF0C4CF4E06C1CEA11541DBF36
:100880001CEA135594EA0C0F95EA0C0F00F0A7F838
:10089000A4EB050481EA030E52EA03354FEA013165
:1008A00000F088804FEA03334FF0805545EA131378
:1008B00043EA12634FEA022245EA111545EA106540
:1008C0004FEA00260EF000419D4208BF964244F1D7
:1008D000FD0404F5407402D25B084FEA3202B61AF6
:1008E00065EB03055B084FEA32024FF480104FF4CA
:1008F000002CB6EB020E75EB030E22BFB61A75463E
:1009000040EA0C005B084FEA3202B6EB020E75EBD0
:10091000030E22BFB61A754640EA5C005B084FEA38
:100920003202B6EB020E75EB030E22BFB61A754605
:1009300040EA9C005B084FEA3202B6EB020E75EB10
:10094000030E22BFB61A754640EADC0055EA060ED1
:1009500018D04FEA051545EA16754FEA06164FEA14
:10096000C30343EA52734FEAC2025FEA1C1CC0D1C0
:1009700011F4801F0BD141EA00014FF000004FF04D
:10098000004CB6E711F4801F04BF01430020B4F10E
:10099000FD0C88BFBCF5E06F3FF6AFAEB5EB030CC6
:1009A00004BFB6EB020C5FEA500C50F1000041EBC3
:1009B000045170BD0EF0004E4EEA113114EB5C0490
:1009C000C2BFD4EB0C0541EA045170BD41F4801163
:1009D0004FF0000E013C90E645EA060E8DE60CEA6B
:1009E000135594EA0C0F08BF95EA0C0F3FF43BAF88
:1009F00094EA0C0F0AD150EA01347FF434AF95EA3F
:100A00000C0F7FF425AF104619462CE795EA0C0F22
:100A100006D152EA03353FF4FDAE1046194622E7EF
:100A200050EA410618BF52EA43067FF4C5AE50EAC9
:100A300041047FF40DAF52EA43057FF4EBAE12E7B9
:100A40004FF0FF3C06E000BF4FF0010C02E000BF9A
:100A50004FF0010C4DF804CD4FEA410C7FEA6C5C7D
:100A60004FEA430C18BF7FEA6C5C1BD001B050EA20
:100A7000410C0CBF52EA430C91EA030F02BF90EA0B
:100A8000020F0020704710F1000F91EA030F58BFCA
:100A9000994208BF90422CBFD8176FEAE37040F02C
:100AA000010070474FEA410C7FEA6C5C02D150EACA
:100AB000013C07D14FEA430C7FEA6C5CD6D152EA85
:100AC000033CD3D05DF8040B704700BF844610464A
:100AD00062468C461946634600E000BF01B5FFF749
:100AE000B7FF002848BF10F1000F01BD4DF808ED19
:100AF000FFF7F4FF0CBF012000205DF808FB00BFEA
:100B00004DF808EDFFF7EAFF34BF012000205DF843
:100B100008FB00BF4DF808EDFFF7E0FF94BF012090
:100B200000205DF808FB00BF4DF808EDFFF7CEFF91
:100B300094BF012000205DF808FB00BF4DF808EDD0
:100B4000FFF7C4FF34BF012000205DF808FB00BFA1
:100B50004FEA410C7FEA6C5C02D150EA013C0AD1B9
:100B60004FEA430C7FEA6C5C02D152EA033C02D1AB
:100B70004FF0000070474FF0010070474FEA41020C
:100B800012F5001215D211D56FF47873B3EB6252DF
:100B900012D94FEAC12343F0004343EA505311F006
:100BA000004F23FA02F018BF404270474FF0000098
:100BB000704750EA013005D111F0004008BF6FF0D6
:100BC000004070474FF00000704700BF53B94AB96A
:100BD000002908BF00281CBF4FF0FF314FF0FF3045
:100BE00000F092B9ADF1080C6DE904CE00F01AF8EE
:100BF000DDF804E0DDE9022304B07047430803F0A8
:100C00005533C01A830800F0333003F033331844EF
:100C100000EB101000F00F3000EB002000EB004064
:100C2000000E70472DE9F04F099D0C46002B4DD169
:100C30008A420F4684469646B2FA82F360D94BB197
:100C400002FA03FEC3F120029F4000FA03FC20FADF
:100C500002F217434FEA1E461FFA8EF44FEA1C4277
:100C6000B7FBF6F106FB117701FB04F042EA0742FD
:100C7000904208D91EEB020201F1FF3702D29042E6
:100C800000F22D813946121A1FFA8CFCB2FBF6F0E5
:100C900006FB102200FB04F44CEA024C644508D920
:100CA0001EEB0C0C00F1FF3202D2644500F21A81F7
:100CB000104640EA0140ACEB040C002125B12CFAAF
:100CC00003F30022C5E90032BDE8F08F8B4205D95D
:100CD0000DB1C5E9000100210846F5E7B3FA83F13B
:100CE00000294DD1A342C0F0F280904280F0EF8005
:100CF000064623460846002DE6D0C5E90063E3E733
:100D0000002B40F0A2808A1A4FEA1E471FFA8EF687
:100D10000121B2FBF7F407FB14204FEA1C4242EA20
:100D2000004206FB04F090420FD91EEB020204F1D0
:100D3000FF382CBF4FF001094FF00009904203D952
:100D4000B9F1000F00F0C8804446121A1FFA8CFC5B
:100D5000B2FBF7F007FB102200FB06F64CEA024C50
:100D6000664508D91EEB0C0C00F1FF3202D2664535
:100D700000F2BB801046ACEB060C40EA04409DE755
:100D8000C1F120068B4004FA01FE22FA06F720FA90
:100D900006FCF4408A401F434EEA0C0300FA01FEB1
:100DA0004FEA17484FEA13491FFA87FCB4FBF8F0E3
:100DB00008FB104449EA044400FB0CF9A1450ED994
:100DC0003C1900F1FF3A2CBF4FF0010B4FF0000B24
:100DD000A14503D9BBF1000F00F093805046A4EB6E
:100DE00009041FFA83F9B4FBF8F308FB134403FB6F
:100DF0000CFC49EA0444A44506D93C1903F1FF3828
:100E000001D2A4457AD8434643EA0040A4EB0C043F
:100E1000A0FB02984445CC46434602D306D1CE45BA
:100E200004D20138B9EB020C68EB07035DB1BEEBED
:100E30000C0264EB030404FA06F622FA01F3CC4038
:100E40001E43C5E9006400213EE702FA03FEC3F138
:100E5000200104FA03F200FA03FCCC404FEA1E47DB
:100E600020FA01F11FFA8EF6B4FBF7F00A4307FBF4
:100E70001044110C41EA044100FB06F48C420ED9E7
:100E80001EEB010100F1FF382CBF4FF001094FF0BC
:100E900000098C4202D9B9F1000F2CD04046091B41
:100EA00092B2B1FBF7F407FB141142EA014204FBD2
:100EB00006F1914207D91EEB020204F1FF3801D27C
:100EC000914215D84446521A44EA004121E7861A55
:100ED00064EB030301200EE7023C724435E702395C
:100EE0007244D0E6F4440238E3E6F444023842E7C0
:100EF000023C7244E7E702387144D0E7023B3C44CD
:100F000082E702383C446AE7704700BF80B586B08C
:100F100002AF786039604949494B40F2291249488B
:100F20000CF0C4FA3B6858683B681B8907F10E0255
:100F3000194671F0CFFF0346FB73FB7B012B0ED0EC
:100F40003E493B681B891A463B685B6801930092E7
:100F50003D4B40F231123D480CF0A8FA69E0BB7BF2
:100F60000B2B17D135493A4B40F2371235480CF06C
:100F70009DFA384B01221A70374B18683B68D968C4
:100F80003B681B691A469AF046FF3B681B69334A67
:100F900013604EE0BB7B0C2B0AD12849304B4FF439
:100FA000A17230480CF082FA2A4B02221A7040E0FB
:100FB000BB7B112B17D121492B4B4FF4A472214835
:100FC0000CF074FA254B01221A60234B18683B6819
:100FD000D9683B681B691A469AF01DFF3B681B697C
:100FE0001E4A136025E0BB7B122B14D113491F4B03
:100FF00040F253121B480CF059FA10493B68DB6869
:1010000000931B4B40F255120E480CF04FFA134B55
:1010100002221A600DE009493B681B891A463B68A9
:101020005B6801930092134B40F25B120D480CF089
:101030003DFA00BF1037BD4680BD00BFB0D60908DD
:10104000D0D60908ECD60908F0D6090824D7090833
:1010500028D70908CC070020D0070020D807002097
:101060007CD70908D0D70908D4D709081CD80908A3
:1010700064D8090868D8090890B587B002AF03465C
:101080003960FB71194B1868FA7900230093184BEB
:10109000396806F0F9FC0346FB73FB7B002B09D093
:1010A0001449FB7B0093144B4FF4B77213480CF0B8
:1010B000FDF90EE00F4C3868FFF7ECF802463B688C
:1010C000019300920E4B4FF4B97221460D480CF07B
:1010D000EDF9FB7B002BD5D1FB7B002B0CBF012353
:1010E0000023DBB218461437BD4690BDDC07002054
:1010F0000D0F0008B0D60908B0D80908D0D70908E4
:10110000E0D80908ECD6090890B587B002AF78603E
:10111000184B18680023184A796806F025FF034623
:10112000FB73FB7B002B09D01449FB7B0093144B12
:1011300040F2871213480CF0B9F90EE00F4C7868B2
:10114000FFF7A8F802467B68019300920E4B40F22D
:101150008B1221460D480CF0A9F9FB7B002BD7D14F
:10116000FB7B002B0CBF01230023DBB21846143796
:10117000BD4690BDDC0700200D0F0008B0D6090861
:10118000FCD80908D0D7090830D90908ECD60908D5
:1011900080B584B002AF786039607B681B68002B33
:1011A0000AD07B6818683B681B781A4600230093B6
:1011B0000323002183F016FE00BF0837BD4680BD23
:1011C00080B594B002AFB9607A603B600346FB73B0
:1011D00007F12C0300221A605A609A60DA601A61E3
:1011E00007F1240300221A605A6007F11803002255
:1011F0001A605A609A6000237B610021002084F00D
:1012000083F9FB7B87F82C30BB683B63B868FFF73A
:1012100041F803469BB2BB867B68BB633B68FB63BC
:1012200083F0B2FA03467B624FF4FA733B621C4BC5
:10123000BB6107F12403FB611A4B1B6807F118021D
:1012400007F12C0118467EF00AFE034687F8473066
:1012500097F84730002B14D107F114034FF0FF32F9
:10126000009200220021002083F038FD38643B6C9E
:10127000012B03D17B6987F8473002E0042387F80C
:10128000473097F84730002BD6D197F84730002BDE
:101290000CBF01230023DBB218464837BD4680BD92
:1012A00091110008DC07002080B584B002AF1B4913
:1012B0000020FFF7E1FE0346FB71FB7983F0010399
:1012C000DBB2002B0AD01649144B01932F23009355
:1012D000144B40F2D91214480CF0E8F8FB79002BBB
:1012E00016D012490020FFF7C7FE0346FB71FB79B9
:1012F00083F00103DBB2002B0AD009490B4B0193A9
:101300002F230093074B4FF4F17207480CF0CEF8EF
:10131000FB7918460837BD4680BD00BF50D9090883
:10132000B0D6090880D90908D0D70908B8D9090862
:1013300080B584B002AF1B48FFF7E6FE0346FB71A1
:10134000FB7983F00103DBB2002B0AD01649154B61
:1013500001932F230093154B4FF4F97214480CF0AE
:10136000A5F8FB7983F00103DBB2002B15D01148FF
:10137000FFF7CAFE0346FB71FB7983F00103DBB282
:10138000002B0AD008490B4B01932F230093074BE6
:1013900040F2FB1206480CF089F8FB791846083732
:1013A000BD4680BD50D90908B0D60908E8D909085A
:1013B000D0D70908B8D9090880B584B002AF1B4955
:1013C0000020FFF759FE0346FB71FB7983F0010310
:1013D000DBB2002B0AD01649144B01934A23009329
:1013E000144B40F20B2214480CF060F8FB79002BF0
:1013F00016D012490020FFF73FFE0346FB71FB7930
:1014000083F00103DBB2002B0AD009490B4B019397
:101410004A230093074B4FF4057207480CF046F837
:10142000FB7918460837BD4680BD00BF24DA09089D
:10143000B0D6090880D90908D0D7090870DA090898
:1014400080B584B002AF1A48FFF75EFE0346FB7119
:10145000FB7983F00103DBB2002B0AD01549144B52
:1014600001934A230093144B40F2252213480CF0B9
:101470001DF8FB79002B15D01148FFF745FE0346F8
:10148000FB71FB7983F00103DBB2002B0AD0094921
:101490000B4B01934A230093074B40F22E2207483F
:1014A0000CF004F8FB7918460837BD4680BD00BF34
:1014B00024DA0908B0D60908E8D90908D0D70908FC
:1014C00070DA090890B59BB006AF7860002387F802
:1014D0004F304FF4805084F05FFFB864BB6C002B3A
:1014E0000CD10BF0AFFE6B496B4B4FF410726B4895
:1014F0000BF0DCFF0BF0A6FE00BEFDE700237B62D5
:101500004FF4805084F048FF78647B6C002B0CD142
:101510000BF098FE5F49604B40F246225F480BF0AB
:10152000C5FF0BF08FFE00BEFDE7402084F034FFC6
:1015300038643B6C002B0CD10BF084FE5549564BA4
:101540004FF4137255480BF0B1FF0BF07BFE00BE59
:10155000FDE74FF4806084F01FFFF863FB6B002B06
:101560000CD10BF06FFE4B494B4B40F252224B48D3
:101570000BF09CFF0BF066FE00BEFDE70023BB6393
:10158000802084F009FF78637B6B002B0CD10BF07B
:1015900059FE4049404B40F25E2240480BF086FF26
:1015A0000BF050FE00BEFDE700233B630023FB620F
:1015B000002387F82B304FF4805084F0EDFE034673
:1015C000374A1360364B1B68002B0CD10BF03AFEE8
:1015D0003049314B4FF41D7230480BF067FF0BF070
:1015E00031FE00BEFDE74FF480520021B86C9AF046
:1015F000E9F904F0C3FD05F0A1FD0346294A136093
:10160000284B1B68002B0CD10BF01CFE2149224BF0
:1016100040F27D2221480BF049FF0BF013FE00BE83
:10162000FDE704F0E7FD1B491F4B40F282221F48F3
:101630000BF03CFF07F11403194600200FF0C0FC2B
:10164000B863BB6B1A4A8021786B9AF04BF807F1AC
:101650001003194607200FF0B3FC38634FF4805392
:101660003B624023FB614FF48063BB6107F10C03D5
:1016700018462AF049FEF862FB6A002B1ED0054985
:101680000C4B40F299220C480BF010FF002387F816
:101690004F303DE0B0D60908BCDA0908D0DA0908B5
:1016A000D0070020DC070020D8DA0908ECD60908AA
:1016B00018DB090820DB0908D0D70908B149B24B6B
:1016C00040F29E22B1480BF0F1FEF86807F12403C6
:1016D00002937B6B01934FF480530093BB6CAC4A35
:1016E000AC4900F0A7FA034687F84F3097F84F301F
:1016F00083F00103DBB2002B0AD0A249A64B40F2D3
:10170000A322A6480BF0D2FEFB68184600F05CFC52
:1017100097F84F30002B1BD09A49A14B40F2AF22D3
:101720009A480BF0C3FEFFF7BFFD034687F84F3022
:1017300097F84F30002B0BD092499A4B40F2B522CC
:1017400092480BF0B3FEFFF737FE034687F84F30A1
:1017500097F84F30002B13D08A49934B40F2BE22AA
:101760008A480BF0A3FE914B18687B6A904A00925E
:10177000BA6C4FF4006100F0BBFC034687F84F30B1
:1017800097F84F30002B24D07E498A4B40F2C52277
:101790007E480BF08BFE854B1A68854B1B6897F8CB
:1017A0002B008549FFF70CFD034687F84F3097F86B
:1017B0004F3083F00103DBB2002B0AD071497E4B1E
:1017C0000193262300937D4B40F2CB2273480BF00C
:1017D0006DFE97F84F30002B31D040F6B83081F0D5
:1017E000CFFA6849764B40F2D32268480BF05EFE90
:1017F0006E4B1868734B196807F1200207F1180344
:101800000393FB6B029307F11C0301933B6C009362
:1018100013467A6C00F0FCFD034687F84F3097F8CA
:101820004F30002B0BD05749FB691A463B6C019394
:101830000092654B40F2D92254480BF037FE97F8DE
:101840004F30002B08D0F8683B6A604A796C00F092
:10185000B5FA034687F84F30FFF76AFD97F84F3027
:10186000002B1DD0514B1B684FF4805200211846AD
:101870009AF0A8F84D4B1868B9697B693A694C4CE5
:10188000049403923A6B02920193BB6B00930B4654
:10189000FA6B4FF4006100F0CBFC034687F84F3041
:1018A00097F84F30002B1DD0404B1A68404B1B68F7
:1018B00097F82B004649FFF783FC034687F84F3023
:1018C00097F84F3083F00103DBB2002B0AD02D498B
:1018D0003F4B019341230093384B40F2FA222F48AB
:1018E0000BF0E4FD97F84F30002B21D040F6B830D4
:1018F00081F046FA80237B612C4B1868314B1968C4
:1019000007F11403BA6B00F097FF034687F84F30D6
:1019100097F84F30002B0BD01A497B691A46BB6BE6
:10192000019300922B4B4FF4427218480BF0BEFD0E
:10193000FFF786FDB86C84F007FE786C84F004FE37
:10194000386C84F001FEF86B84F0FEFDB86B84F017
:10195000FBFD786B84F0F8FD386B84F0F5FD134BDC
:101960001B68184684F0F0FD97F84F30002B33D0F9
:10197000012106200FF010FA0FF070FF15F0B2FDF4
:101980002AE000BFB0D6090840DB0908ECD60908F8
:1019900054DB090860DB090870DB0908D0D70908A7
:1019A000A8DB0908C8DB0908F0DB0908D00700201C
:1019B000D407002004DC090818DC090840DC090809
:1019C00078DC0908D80700208CDC0908B0DC09089D
:1019D000BCDC090800DD090809490A4B40F2233242
:1019E00009480BF063FD002081F052F997F84F3061
:1019F00083F00103DBB218465437BD4690BD00BFEB
:101A0000B0D6090824DD0908ECD6090880B58CB0E9
:101A100002AFF860B9607A603B6000233B6207F177
:101A2000180318462CF03EF878627B6A002B06D02B
:101A30002749284B692228480BF038FD43E0002352
:101A40003B623AE03B6A9B00BA6813441B68FB6147
:101A50002021F8699AF04CF801463B6A9B007A68AD
:101A600013441A6807F11403009313460A46F969F0
:101A7000F8682AF0B7FC7862BB69DB6D7A691146B9
:101A8000F868984778627B6A002B1BD12021F8699F
:101A90009AF02EF801463B6A9B007A6813441A6854
:101AA00007F11403009313460A46F969F8682AF00F
:101AB00099FC78623B6A01333B623A6A3B689A421E
:101AC000C0D300E000BF7B6A18462837BD4680BD02
:101AD0006CDD090880DD0908ACDD090890B5AFB000
:101AE00004AFF860B9607A603B604FF48253C7F886
:101AF00098300023C7F89C300023C7F8A030494A2B
:101B000007F1880307CA03C31A800323C7F8843088
:101B1000012387F883304FF480733B6500237B6596
:101B20000423BB654FF48573FB6500233B660123EB
:101B30007B664FF4C073BB660023FB660A233B67DA
:101B400003237B677B68BB672021786899F0D0FF0F
:101B50000346FB6707F184037B6507F183033B665C
:101B600007F18803FB664FF480737B610023BB6140
:101B70000423FB6101233B6200237B620123BB62E0
:101B80000223FB6200233B6301237B634FF48473D6
:101B9000BB630023FB6301233B6403237B64BB68BB
:101BA000BB642021B86899F0A3FF0346FB6407F1EA
:101BB0008403BB6107F183037B6207F183033B630B
:101BC00007F18303FB6307F1940318462BF06AFFC8
:101BD000C7F8A400D7F8A430002B06D01249134B45
:101BE000BE2213480BF062FC16E0D7F89430D3F80D
:101BF000F04007F1500207F198013B680393D7F8D2
:101C0000B83002930523019307F1140300930423D2
:101C1000F868A047C7F8A400D7F8A4301846AC3736
:101C2000BD4690BDB0DD09086CDD090880DD0908FE
:101C3000ACDD090880B592B002AFF860B9607A6097
:101C40003B600023FB634FF0FF33BB63022053F084
:101C500061FA7863BB68002B0BD10BF0F3FA5349A0
:101C6000534BE02253480BF021FC0BF0EBFA00BE83
:101C7000FDE77B68002B0BD10BF0E4FA4B494C4B92
:101C8000E1224C480BF012FC0BF0DCFA00BEFDE741
:101C90003B68002B0BD10BF0D5FA4449444BE222B0
:101CA00044480BF003FC0BF0CDFA00BEFDE73B6DA2
:101CB000002B0BD10BF0C6FA3C493D4BE3223D48CB
:101CC0000BF0F4FB0BF0BEFA00BEFDE7F86807F17D
:101CD000300207F12C03009313467A68B968FFF7C6
:101CE000FDFEF863FB6B002B07D1F9683A6B07F137
:101CF000240318460EF02CF8F863FB6B002B45D13B
:101D000007F11403184670F011F807F114030421C9
:101D1000184670F02EF807F114038021184670F071
:101D20006DF8B863BB6B002B06D107F1140380215B
:101D3000184670F09BF8B863BB6B002B06D107F117
:101D40001403F96C184670F031F8B863BB6B002BC4
:101D500012D107F1240207F114031146184670F05E
:101D600017F807F1140007F10C030093124BBA6C3B
:101D7000396870F0C1FAB86307F1140318466FF0C0
:101D8000E2FF07F12403184653F0A9F93868FEF77B
:101D900081FA02463B6D1A60BB6B002B0CBF01231E
:101DA0000023DBB218464037BD4680BD6CDD090814
:101DB000BCDD0908D0DD090855FF000890B5A5B0C5
:101DC00002AFF860B9607A603B6001233B63002397
:101DD000FB620023BB620023C7F884300023C7F8EE
:101DE00080300023FB6700237B62012387F82330C8
:101DF0006A4A07F1140307CA83E8070000233B611E
:101E00007B68002B0CD10BF01DFA6549654B40F245
:101E1000291265480BF04AFB0BF014FA00BEFDE7EF
:101E2000BB68002B09D15E49604B40F22D1260481F
:101E30000BF03CFB1323C7F88430D7F88430002B19
:101E400030D13B680133184615F02CFA0346C7F829
:101E500080303B6801337B62D7F88030002B17D08D
:101E60003B68591C07F12403D7F88020B8682AF092
:101E700097FBF867FB6F002B14D049494D4B40F29C
:101E800041124B480BF012FB0723C7F8843009E0DE
:101E90004349494B40F2471245480BF007FB0223E8
:101EA000C7F88430D7F88430002B11D107F128030C
:101EB00018462BF0F7FDC7F88400D7F88430002BC4
:101EC00006D037493D4B4FF4A97239480BF0EEFA72
:101ED000D7F88430002B4ED100237B6307F1300309
:101EE000BB630423FB6340F201133B6407F114035B
:101EF0007B6407F114031846FEF7CCF90346BB6474
:101F00001123BB65D7F88030FB657B6A3B660323F2
:101F10007B667B68BB667B682021184699F0E8FDEC
:101F20000346FB668023FB6407F12C033B65042317
:101F30007B6501233B6707F123037B670123BB67B5
:101F400007F13002391D0123F868FFF75FFD1449DE
:101F50007B6800931A4B40F275121A480BF0A6FAF0
:101F6000BB6A5C6D07F1100307F134010622F868C3
:101F7000A047C7F88400D7F88030002B03D0D7F8EB
:101F8000800015F050FAD7F88430002B0CBF0123E5
:101F90000023DBB218468C37BD4690BD88DE0908A9
:101FA0006CDD0908BCDD0908D0DD0908D8DD0908A9
:101FB000ACDD0908F4DD09081CDE090880DD09082C
:101FC0005CDE090884DE090880B584B000AF786063
:101FD0000023FB600023BB6007F1080318462BF0C9
:101FE00061FDF860FB68002B04D1BB689B6B7868CF
:101FF0009847F860FB68002B04D1BB689B68002001
:102000009847F860FB68002B0CBF01230023DBB26C
:1020100018461037BD4680BD80B582B000AF7860ED
:1020200039603868FEF736F903461A463968786829
:1020300037F037FC034618460837BD4680BD80B4EC
:1020400083B000AF786039607B681A683B68D31A48
:1020500018460C37BD465DF8047B704780B483B0EA
:1020600000AF78607B689B7B602B0CBF0123002353
:10207000DBB218460C37BD465DF8047B70470000A4
:1020800080B584B000AFF860B9607A603B60F868F2
:10209000FFF7E4FF0346002B06D1094B094A4FF432
:1020A000F871094898F074FA3B687A68B968F8687A
:1020B00038F018FE034618461037BD4680BD00BFF5
:1020C00094DE09085C710B08B8DE090880B483B09F
:1020D00000AF78607B689B7BA02B0CBF01230023A3
:1020E000DBB218460C37BD465DF8047B7047000034
:1020F00090B591B002AFF860B9607A603B60FB6860
:10210000002B0BD10BF09EF84249434B342243483D
:102110000BF0CCF90BF096F800BEFDE77B68002BC6
:102120000BD10BF08FF83B493B4B35223B480BF072
:10213000BDF90BF087F800BEFDE7BB6C002B0BD19F
:102140000BF080F83349344B362234480BF0AEF9AB
:102150000BF078F800BEFDE707F124000023BA6811
:10216000F96837F0B4F907F1140107F124030122EB
:10217000184637F00CFC78637B6B002B06D107F117
:10218000140327491846FFF747FF78637B6B002B42
:1021900007D107F114033A687968184637F081FBD4
:1021A00078637B6B002B08D107F1140207F124033D
:1021B0001146184637F007FC78637B6B002B09D17A
:1021C00007F12403F9681846FFF739FF0246BB6C94
:1021D0001A6014E00F4C786B37F036FC034600931E
:1021E000104B5522214610480BF060F97B6B002BF9
:1021F00005DA08490D4B59220B480BF057F97B6B58
:10220000002B0CBF01230023DBB218463C37BD4630
:1022100090BD00BF3CDF090854DF090868DF0908EA
:1022200070DF09088CDF0908ACDF0908B0DF090896
:1022300080B592B000AFF860B9607A603B60FB682F
:10224000002B05D1654B664A6A21664898F0A0F9D3
:102250007B68002B05D1644B614A6B21614898F083
:1022600097F93B6D002B05D1604B5D4A6C215D48B1
:1022700098F08EF9BB6D002B05D15D4B584A6D214E
:10228000584898F085F93B6E002B05D1594B544ABC
:102290006E21544898F07CF907F134000023BA68A5
:1022A000F96837F014F907F1240107F13403022229
:1022B000184637F06CFB78647B6C002B06D107F175
:1022C00024034D491846FFF7A7FE78647B6C002B6A
:1022D00007D107F124033A687968184637F0E1FA24
:1022E00078647B6C002B06D107F124034349184620
:1022F000FFF792FE78647B6C002B08D107F1140184
:1023000007F124030222184637F041FB78647B6C06
:10231000002B06D107F1140339491846FFF77CFE5C
:1023200078647B6C002B07D107F114037A6D396D4B
:10233000184637F0B6FA78647B6C002B06D107F1AB
:10234000140330491846FFF767FE78647B6C002B56
:1023500007D107F11403FA6DB96D184637F0A1FAE9
:1023600078647B6C002B08D107F1140207F1240379
:102370001146184637F027FB78647B6C002B08D198
:1023800007F1240207F134031146184637F01BFB0E
:1023900078647B6C002B09D107F13403F968184687
:1023A000FFF74DFE02463B6E1A600DE0786C37F089
:1023B0004BFB03461946144899F024F97B6C002B1B
:1023C00002DA124899F086F97B6C002B0CBF0123CE
:1023D0000023DBB218464837BD4680BDF4DF09084C
:1023E0003C710B081CDF090808E009082CE009080B
:1023F00040E0090850E009086CE0090888E0090895
:1024000094E00908A0E00908B0E00908D0E0090854
:1024100090B595B002AFF860B9607A603B60FB6838
:10242000002B0BD10AF00EFFAA49AB4BC822AB48D8
:102430000BF03CF80AF006FF00BEFDE77B68002BBE
:102440000BD10AF0FFFEA349A34BC922A3480BF00E
:102450002DF80AF0F7FE00BEFDE73B68002B0BD11C
:102460000AF0F0FE9B499C4BCA229C480BF01EF8D8
:102470000AF0E8FE00BEFDE7BB6D002B0BD10AF0B1
:10248000E1FE9449944BCB2294480BF00FF80AF0EC
:10249000D9FE00BEFDE7FB6D002B0BD10AF0D2FE8A
:1024A0008C498D4BCC228D480BF000F80AF0CAFE07
:1024B00000BEFDE7FB6D1B683F2B0BD80AF0C2FE88
:1024C0008449854BCD2285480AF0F0FF0AF0BAFE18
:1024D00000BEFDE73B6E002B0BD10AF0B3FE7D4939
:1024E0007D4BCE227D480AF0E1FF0AF0ABFE00BE34
:1024F000FDE77B6E002B0BD10AF0A4FE7549764BED
:10250000CF2276480AF0D2FF0AF09CFE00BEFDE71B
:1025100007F13C0207F12C03009313460022B9682F
:10252000F86838F027F878647B6C002B0CD0694C85
:10253000786C37F089FA03460093694BD82221461C
:1025400068480AF0B3FF6EE007F12C031846FFF766
:10255000BDFD034683F00103DBB2002B06D05D49CD
:10256000614BDC225F480AF0A1FF5CE007F11C022E
:1025700007F12C035D49184638F0E2FB78647B6C68
:10258000002B0CD0534C786C37F05EFA0346009366
:10259000574BE422214653480AF088FF43E097F85E
:1025A0002A30FF2B06D14B49524BE8224D480AF006
:1025B0007DFF38E097F82A30602B06D045494E4B16
:1025C000EC2248480AF072FF2DE007F11C000023BE
:1025D0003A687968FFF754FD78647B6CB3F1004F7B
:1025E00012D10023BB6107F1180207F11C03114649
:1025F000184638F06FF93749BB6900933F4BF62214
:1026000038480AF053FF0EE07B6C002B0BD0314CA6
:10261000786C37F019FA03460093394BFA222146B9
:1026200030480AF043FF7B6C002B40F0838007F1B9
:102630001C0207F12C033349184638F081FB7864FB
:102640007B6C002B0DD0234C786C37F0FDF90346E2
:102650000093274B40F20512214622480AF026FF3C
:1026600068E097F82A30FF2B07D11A49264B40F231
:1026700009121C480AF01AFF5CE097F82A30602B18
:1026800007D01449214B40F20D1216480AF00EFFF4
:1026900050E007F11C000023FA6DB96DFFF7F0FC64
:1026A00078647B6CB3F1004F34D100237B6107F178
:1026B000140207F11C031146184638F00BF90549BE
:1026C0007B690093124B40F2171206480AF0EEFEA7
:1026D00030E000BF3CDF090854DF090868DF090863
:1026E00008E10908ACDF090850E1090898E1090888
:1026F000A8E10908E0E1090824E2090884E20908E0
:10270000C8E209081CE309082CE309086CE309087E
:10271000B8E309087B6C002B0CD03E4C786C37F08A
:1027200093F9034600933C4B40F21B1221463B4871
:102730000AF0BCFE7B6C002B61D107F11C0207F193
:102740002C033749184638F0FBFA78647B6C002B71
:102750000DD0304C786C37F077F903460093314B4D
:102760004FF4937221462D480AF0A0FE47E097F8F7
:102770002A30FF2B07D127492B4B4FF4957227485E
:102780000AF094FE3BE097F82A30602B07D02149ED
:10279000264B4FF4977221480AF088FE2FE007F18C
:1027A0001C0000237A6E396EFFF76AFC78647B6C3C
:1027B000B3F1004F13D100233B6107F1100207F181
:1027C0001C031146184638F085F812493B690093FE
:1027D000174B4FF49C7211480AF068FE0FE07B6CB7
:1027E000002B0CD00B4C786C37F02EF9034600937D
:1027F000104B4FF49E72214608480AF057FE7B6C3E
:10280000002B0CBF01230023DBB218464C37BD461A
:1028100090BD00BF3CDF090800E40908ACDF0908EF
:102820006CE00908A8E1090854E40908A0E40908D3
:10283000F8E4090860E5090890B593B002AFF860C4
:10284000B9607A603B60FB68002B0CD10AF0FAFC9F
:102850006349644B40F24F1263480AF027FE0AF0C6
:10286000F1FC00BEFDE77B68002B0CD10AF0EAFC0E
:102870005B495C4B4FF4A8725B480AF017FE0AF004
:10288000E1FC00BEFDE73B68002B0CD10AF0DAFC4E
:102890005349544B40F2511253480AF007FE0AF0D4
:1028A000D1FC00BEFDE707F1340207F124030093D9
:1028B00013460022B968F86837F05CFEF863FB6BDA
:1028C000002B0DD0464CF86B37F0BEF80346009352
:1028D000464B4FF4AD72214645480AF0E7FD74E0DF
:1028E00007F124031846FFF7F1FB034683F00103C9
:1028F000DBB2002B07D03A493E4B4FF4AF723C4855
:102900000AF0D4FD61E007F1140207F124033A490B
:10291000184638F015FAF863FB6B002B0DD0304CDD
:10292000F86B37F091F803460093344B4FF4B372D1
:1029300021462F480AF0BAFD47E097F82230FF2BD6
:1029400007D127492E4B4FF4B57229480AF0AEFD46
:102950003BE097F82230602B07D02149294B4FF4F8
:10296000B77223480AF0A2FD2FE007F114000023FC
:102970003A687968FFF784FBF863FB6BB3F1004FAB
:1029800013D100233B6107F1100207F11403114634
:10299000184637F09FFF12493B6900931A4B4FF4DA
:1029A000BC7213480AF082FD0FE0FB6B002B0CD0C9
:1029B0000B4CF86B37F048F803460093134B4FF479
:1029C000BE7221460A480AF071FDFB6B002B0CBF5A
:1029D00001230023DBB218464437BD4690BD00BF3B
:1029E0003CDF090854DF090868DF0908C0E5090869
:1029F000ACDF0908FCE5090824E6090830E6090807
:102A00005CE6090890E60908D0E6090810E709081D
:102A100080B582B000AF786039603868FDF73AFC65
:102A200003461A463968786836F03BFF0346184675
:102A30000837BD4680BD80B483B000AF7860396090
:102A40007B681A683B68D31A18460C37BD465DF898
:102A5000047B704780B584B002AF786039607B68D2
:102A6000002B05D11349144BDD2214480AF01EFD3A
:102A70003B68002B05D10F490F4BDE220F480AF0AF
:102A800015FD7B68002B11D03B68002B0ED07B68B6
:102A9000DB69012B0AD17B6818683B681B781A46F2
:102AA000002300930323022182F09CF900BF083722
:102AB000BD4680BD6BE709087CE7090898E709086F
:102AC00080B582B000AF78607B689B68002B04D033
:102AD0007B689B68184683F037FD7B68DB68002BBA
:102AE00004D07B68DB68184683F02EFD2422002189
:102AF000786898F067FF00BF0837BD4680BD0000CA
:102B000090B587B002AF78600123FB737B68002B20
:102B10000BD10AF097FB2D492D4BFE222D480AF0D0
:102B2000C5FC0AF08FFB00BEFDE77B682A4A1A61EC
:102B30007B682A4A5A617B685B689BB222339AB2EF
:102B40007B681A837B681B8B0133184683F024FC57
:102B500002467B68DA607B68DB68002B02D10023C9
:102B6000FB7319E07B68D8687B68198B7B689A686F
:102B70007B685B689CB207F10C030193032300930D
:102B800023466FF0DBFC0346FB737B681A8BBB8923
:102B90009A4201D00023FB73FB7B012B0BD07B6897
:102BA000DB68002B07D07B68DB68184683F0CCFC21
:102BB0007B680022DA60FB7B012B0CBF0123002322
:102BC000DBB218461437BD4690BD00BF6BE709085D
:102BD000A0E7090898E70908B4E70908E4E7090845
:102BE00080B586B002AF78600023FB737B68186AFB
:102BF0007B6819697B680093254B012204F044FF30
:102C00000346FB73FB7B002B06D02249224B4FF47B
:102C1000997222480AF04AFCFB7B002B0AD01D491E
:102C20007B681B6900931E4B4FF49B721D480AF092
:102C30003DFC22E07B68186A7B6859697B680093D9
:102C4000194B012204F020FF0346FB73FB7B002B92
:102C500006D01049104B4FF4A07210480AF026FC21
:102C6000FB7B002B09D00B497B685B6900930C4B05
:102C70004FF4A2720B480AF019FCFB7B002B0CBF2F
:102C800001230023DBB218461037BD4680BD00BFCC
:102C90003B2D00086BE709087CE7090898E709085D
:102CA00014E8090838E809089F2D000880B584B0A9
:102CB00000AF78600023FB737B68186A7B68196932
:102CC0007B68134A05F050F90346FB73FB7B002B2E
:102CD00006D01049104B4FF4AA7210480AF0E6FBD8
:102CE0007B68186A7B6859697B680D4A05F03CF976
:102CF0000346FB73FB7B002B06D00649064B4FF4C3
:102D0000AE7206480AF0D2FB00BF1037BD4680BD48
:102D10003B2D00086BE709087CE7090898E70908DC
:102D20009F2D000880B483B000AF7860396000BF89
:102D30000C37BD465DF8047B704780B586B002AFA6
:102D4000786039607B68BB60BB68DB69002B22D090
:102D50000023FB603B68DA683B681B691946104634
:102D600000F060F90346002B02D00123FB6001E074
:102D70000323FB603B68DA683B681B691946104611
:102D8000FFF7D0FFBB681868002300930323FA689D
:102D9000012182F027F800BF1037BD4680BD80B505
:102DA00086B002AF786039607B68BB60BB68DB6966
:102DB000002B22D00023FB603B68DA683B681B696C
:102DC0001946104600F02EF90346002B02D00223CC
:102DD000FB6001E00323FB603B68DA683B681B692A
:102DE00019461046FFF79EFFBB6818680023009342
:102DF0000323FA68012181F0F5FF00BF1037BD46BB
:102E000080BD000080B588B000AF78600023FB6112
:102E10007B68002B0CD10AF015FA4A494A4B4FF453
:102E2000E2724A480AF042FB0AF00CFA00BEFDE7E3
:102E300047497868FFF7ECFDF861FB69002B06D085
:102E40004049444B40F2C71240480AF02FFBFB694F
:102E5000002B12D14FF0FF3207F10C0319467868AE
:102E600036F095FDF861FB69002B06D03549394BEA
:102E70004FF4E67235480AF019FBFB69002B0FD1BD
:102E800007F10C03184600F0B5FBF861FB69002B55
:102E900006D02C492F4B4FF4E9722C480AF006FB60
:102EA000FB69002B0FD107F10C03184600F0F4FD6D
:102EB000F861FB69002B06D02249264B4FF4EC72D7
:102EC00022480AF0F3FAFB69002B0FD107F10C033B
:102ED000184600F097FFF861FB69002B06D01949EE
:102EE0001C4B4FF4EF7219480AF0E0FAFB69002B13
:102EF0000FD107F10C03184601F0AEF9F861FB6938
:102F0000002B06D00F49134B4FF4F2720F480AF012
:102F1000CDFAFB69002B10D107F10C031946786834
:102F200036F051FDF861FB69002B06D00549094BCD
:102F30004FF4F57205480AF0B9FAFB6918462037D4
:102F4000BD4680BD6BE70908A0E7090898E70908B6
:102F50003CE809087CE7090880B58CB002AFF8604E
:102F6000B9607A6007F1180300221A605A609A600B
:102F700000237B61264B01221A70FB68DB68244A20
:102F80005360FB681A8B224B1A81214ABB68D360BD
:102F90001F4A7B68136142F210733B621D4BBB6199
:102FA000FB68FB61FB680122DA61FB681B6A07F1C1
:102FB0001802174918467CF052FF03467B617B6973
:102FC000002B17D108237B6107F1140347F230521D
:102FD00000924FF0FF320021022081F07FFE7862E4
:102FE0007B6A002B06D10C490C4B40F21A220C488C
:102FF0000AF05CFA7968B868FFF794FE7B69002BE9
:103000000CBF01230023DBB218462837BD4680BD24
:10301000E4070020552A00086BE7090840E8090882
:1030200038E8090880B485B000AF786039600123C2
:10303000FB73FB7B18461437BD465DF8047B704775
:10304000B0B5ADF5906D02AF07F58F63A3F2744391
:10305000186007F5886324220021184698F0B2FC16
:10306000002387F87734504B00221A6007F58F63EE
:10307000A3F5876300221A6004334FF47F720021A6
:10308000184698F09FFC07F5886304331946002022
:103090000DF096FF0346C7F848340023C7F85C34A8
:1030A00081F072FB0346C7F84034D7F84834002B50
:1030B0000BD0D7F84434002B07D0D7F844344FF660
:1030C000FE72934201D8012300E0002387F8773491
:1030D00097F8773403F0010387F8773497F877345B
:1030E000002B20D007F588631846FFF709FD03463B
:1030F00087F8773497F8773483F00103DBB2002B3D
:1031000006D02A492A4B40F24D222A480AF0CEF92D
:1031100097F87734002B06D12449274B40F25522EB
:1031200026480AF0C3F903F029F804F007F803462B
:10313000C7F8603497F87734002B28D007F58863F8
:103140001846FFF74DFD034687F8773497F8773434
:1031500083F00103DBB2002B06D01449144B40F27C
:10316000632214480AF0A2F997F87734002B07D0AD
:103170000E49134B40F2672212480AF097F906E015
:103180000A49114B40F26B220C480AF08FF997F86C
:10319000773483F00103DBB2002B00F09A81024BFD
:1031A00001221A6095E100BFE00700206BE70908E3
:1031B0007CE7090898E709085CE8090838E8090885
:1031C00080E80908B4E80908B8E8090880F05AF965
:1031D000034600221C46154607F58D63C3E90045EA
:1031E00007F58F63A3F23C4300221A60002387F89F
:1031F00076340023C7F8703407F1400107F12C0042
:1032000000234FF4806236F062F94FF0FF3207F18D
:103210001C0107F12C03184636F0B9FBC7F87004FF
:10322000D7F87034002B06D0B949BA4B4FF421724D
:10323000B9480AF03BF9D7F87034002B12D107F1E6
:103240001C03B6491846FFF7E3FBC7F87004D7F82C
:103250007034002B06D0AE49AE4B40F28922AE4806
:103260000AF024F9D7F87034002B14D107F10C01BF
:1032700007F11C030222184636F089FBC7F87004D8
:10328000D7F87034002B06D0A149A24B4FF424721A
:10329000A1480AF00BF9D7F87034002B2CD107F1B4
:1032A0000C039F491846FFF7B3FBC7F87004D7F823
:1032B0007034002B06D09649964B40F297229648E0
:1032C0000AF0F4F807F10C0107F58D63D3E9002348
:1032D000084636F06CFA0246D7F870341343C7F844
:1032E0007034D7F87034002B06D08949894B40F2EE
:1032F0009A2289480AF0DAF8D7F87034002B25D1E1
:1033000007F10C0387491846FFF782FBC7F87004E2
:10331000D7F87034002B06D07D497E4B40F2A122B5
:103320007D480AF0C3F807F10C037F491846FFF700
:103330006FFBC7F87004D7F87034002B06D07449BF
:10334000744B4FF4297274480AF0B0F8D7F870340F
:10335000002B14D107F10C0207F11C03114618468B
:1033600036F031FBC7F87004D7F87034002B06D064
:103370006749684B40F2AA2267480AF097F8D7F8E5
:103380007034002B18D16249684B4FF42C72684896
:103390000AF08CF807F11C031846FFF733FDC7F855
:1033A0007004D7F87034002B06D05949594B40F2BD
:1033B000B22259480AF07AF8D7F87034002B14D1A9
:1033C00007F11C0207F12C031146184636F0FBFAF0
:1033D000C7F87004D7F87034002B06D04C494D4B19
:1033E0004FF42E724C480AF061F8D7F87034002B75
:1033F00006D047494F4B40F2BD224F480AF056F8DD
:10340000D7F87034002B2AD107F1400207F12C03C2
:1034100011461846FFF70FFBC7F864043C49474BB9
:1034200040F2C62242480AF041F807F1400107F590
:103430008863D7F864241846FFF78EFD034687F8A3
:10344000773497F8773483F00103DBB2002B06D092
:103450002F493B4B4FF4337237480AF027F807F1F6
:103460003C0347F2305200924FF0FF32002101201E
:1034700081F034FC0346012B06D107F58F63A3F2DC
:103480003C431B6887F876340023C7F85C3497F810
:103490007634012B02D0022B08D00FE01C49294BB7
:1034A00040F2DF2222480AF001F80FE01849264BCB
:1034B00040F2E322204809F0F9FF07E01449234BCA
:1034C00040F2E9221C4809F0F1FF00BF20487FF0DC
:1034D00057FC204B1B68002B3FF478AE0C491E4B69
:1034E00040F2F1221D4809F0E1FF07F58863184614
:1034F000FFF7DCFB07F588631846FFF7E1FA0020C9
:103500007FF0C6FB00BF07F58F67BD46B0BD00BFAB
:103510006BE709087CE7090898E70908E8E8090863
:10352000ECE80908F0E80908F4E80908F8E80908EF
:10353000B4E8090818E9090838E809083CE9090865
:1035400060E909088CE90908A8E90908C4E909083B
:10355000E0930400E0070020ECE90908F8E9090815
:1035600080B582B000AF786039603868FCF792FEB1
:1035700003461A463968786836F093F903461846C8
:103580000837BD4680BD80B586B000AFF860B96031
:10359000C7E9002300237B61B968F868FFF7E0FF03
:1035A0007861D7E90023F86836F001F902467B69B3
:1035B00013437B617B6918461837BD4680BD80B5D3
:1035C00086B000AFF860B9607A6000237B61B968AB
:1035D000F868FFF7C5FF78617968F868FFF7C0FF02
:1035E00002467B6913437B617B6918461837BD46E9
:1035F00080BD00002DE9B04FA4B002AFF8640023F5
:10360000C7F88430FB6C002B0CD19D49FB6C0093F8
:103610009C4B64229C4809F049FF40F20723C7F8FD
:10362000843025E10023C7F880304FF000024FF0CE
:103630000003C7E91E234FF000024FF00003C7E963
:103640001C234FF000024FF00003C7E91A234FF08C
:1036500000024FF00003C7E918238C49F86CFFF70C
:103660007FFFC7F88400D7F88430002B05D0844949
:10367000874B7322874809F019FFD7F88430002B55
:1036800012D107F1500304221946F86C36F07FF985
:10369000C7F88400D7F88430002B05D078497C4BDC
:1036A00078227C4809F002FF7B480EF0BBFD7B4B83
:1036B0001B68C7F880306CE0D7F880309B6C002224
:1036C0003B647A64D7E91E23396C51183962796CEE
:1036D0004B417B62D7E90823C7E91E23D7F8803026
:1036E0001B6E0022BB63FA63D7E91C23B96B511828
:1036F000B961F96B4B41FB61D7E90623C7E91C238C
:10370000D7F880301B6D00223B637A63D7E91A2318
:10371000396B51183961796B4B417B61D7E90423CF
:10372000C7E91A23D7F88030DB6C0022BB62FA624B
:10373000D7E91A23B96A5118B960F96A4B41FB609D
:10374000D7E90223C7E91A23D7F880305B6E00223D
:1037500098469146D7E9182312EB0801396043EBEC
:1037600009037B60D7E90023C7E91823D7F8803025
:103770009B6E00221C461546D7E9182312EB040A5B
:1037800043EB050BC7E918ABD7F880301B68C7F8C7
:103790008030D7F88030002B8ED13F480EF056FD98
:1037A000D7F88430002B57D107F15000D7E91A23FE
:1037B0003B49FFF7E8FE0246D7F884301343C7F8C9
:1037C0008430D7F88430002B05D02D49304B92221D
:1037D000304809F06BFE07F15000D7E91823314952
:1037E000FFF7D1FE0246D7F884301343C7F8843080
:1037F000D7F88430002B05D02149254B9522254848
:1038000009F054FE07F15000D7E91E232649FFF7BF
:10381000BAFEC7F88400D7F88430002B05D01849C9
:103820001B4B98221B4809F041FE07F15000D7E9D5
:103830001C231E49FFF7A7FE0246D7F88430134326
:10384000C7F88430D7F88430002B05D00C49104BD2
:103850009B22104809F02AFED7F88430002B07D1AC
:1038600007F150031946F86C36F0ADF8C7F884003C
:10387000D7F8843018468837BD46BDE8B08F00BF02
:1038800013EA09082CEA090850EA090854EA090869
:1038900058EA090874EA0908106C052028EF072087
:1038A0007CEA090880EA090884EA090888EA090824
:1038B00080B483B000AF00237B600C4B1B683B607F
:1038C00009E03B681B7D012B02D17B6801337B60E3
:1038D0003B68DB683B603B68002BF2D17B68184695
:1038E0000C37BD465DF8047B704700BF98F1072098
:1038F00080B584B000AF03463960FB710023FB60E4
:10390000FB79002B18D1124B1B68002B09D0104BF0
:103910001B6893F83C30396818468AF03DF9F86026
:1039200010E03B680B4A106818603B6803330022C4
:103930001A703B68FB6005E0FB79396818468AF02D
:103940002BF9F860FB6818461037BD4680BD00BFF4
:103950002CEF07208CEA0908B0B58CB000AF786076
:103960000023FB627B68002B0BD109F06BFC434901
:10397000434BDB22434809F099FD09F063FC00BE8C
:10398000FDE7414B1B68BB626FE00023FB60002337
:103990003B8200237B62BB6A1B7A07F10C02114653
:1039A0001846FFF7A5FF78627B6A002B25D007F148
:1039B000140302221946786835F0E9FFF862FB6AC1
:1039C000002B05D02D49314BE8222E4809F06EFD21
:1039D000FB6A002B22D107F114037A6A2C4918469E
:1039E000FFF7EDFDF862FB6A002B17D02349274B48
:1039F000ED22244809F05AFD10E007F114030122DA
:103A00001946786835F0C3FFF862FB6A002B05D0D1
:103A10001A491E4BF3221B4809F048FDFB6A002B94
:103A200016D1BB6ADB8A9BB200221C46154607F101
:103A3000140022462B461749FFF7A5FDF862FB6AE2
:103A4000002B05D00D49114BF9220E4809F02EFD2F
:103A5000FB6A002B06D107F114031946786835F08C
:103A6000B2FFF862BB6ADB68BB62BB6A002B8CD119
:103A7000FB6A18463037BD46B0BD00BF13EA0908DF
:103A800090EA090874EA090898F1072058EA090839
:103A9000A4EA0908A8EA0908B0B58EB002AF7860B8
:103AA0000023FB620023BB627B68002B0CD16C49B6
:103AB0007B6800936B4B4FF487726B4809F0F6FC00
:103AC00040F20723FB62C5E068480EF0ABFBFFF74E
:103AD000EFFEB86266497868FFF742FDF862FB6A5C
:103AE000002B06D05E49634B4FF48D72624809F09B
:103AF000DDFCFB6A002B27D1BB6A002B12D007F13B
:103B0000180302221946786835F041FFF862FB6A13
:103B1000002B19D05249574B4FF49172564809F077
:103B2000C5FC11E007F1180301221946786835F049
:103B30002EFFF862FB6A002B06D049494D4B40F23C
:103B400027124D4809F0B2FCFB6A002B15D1BB6A65
:103B500000221C46154607F1180022462B4647490D
:103B6000FFF711FDF862FB6A002B06D03C49414B80
:103B700040F22F12404809F099FCBB6A002B52D04A
:103B8000FB6A002B10D107F118033D491846FFF7D7
:103B9000E7FCF862FB6A002B06D03149354B4FF445
:103BA0009C72354809F082FCFB6A002B12D107F1A8
:103BB000080107F11803BA6A184635F0D7FEF86213
:103BC000FB6A002B06D026492A4B4FF49F722A48E5
:103BD00009F06CFCFB6A002B0FD107F108031846B3
:103BE000FFF7BAFEF862FB6A002B06D01C49214B96
:103BF0004FF4A272204809F059FCFB6A002B12D145
:103C000007F1080207F118031146184635F0DBFEEC
:103C1000F862FB6A002B06D01149164B4FF4A572CF
:103C2000154809F043FCFB6A002B10D107F118037B
:103C30001946786835F0C7FEF862FB6A002B06D09B
:103C400007490C4B40F251120B4809F02FFC074872
:103C50000EF0FCFAFB6A18463037BD46B0BD00BF17
:103C600013EA0908ACEA090850EA0908106C0520B3
:103C7000D4EA090858EA090874EA0908D8EA0908E0
:103C8000DCEA090880B483B000AF00237B600A4BF4
:103C90001B683B6005E07B6801337B603B68DB6849
:103CA0003B603B68002BF6D17B6818460C37BD465D
:103CB0005DF8047B704700BFECF10720B0B58CB015
:103CC00000AF78600023FB627B68002B0CD109F009
:103CD000B9FA4549454B40F26B12454809F0E6FBFD
:103CE00009F0B0FA00BEFDE7424B1B68BB6273E00F
:103CF0000023FB6000233B8200237B62BB6A1B7AAC
:103D000007F10C0211461846FFF7F2FD78627B6A54
:103D1000002B27D007F1140302221946786835F0EA
:103D200036FEF862FB6A002B06D02F49324B4FF467
:103D3000BC722F4809F0BAFBFB6A002B24D107F1B3
:103D400014037A6A2D491846FFF739FCF862FB6ABA
:103D5000002B19D02449284B40F27D12244809F049
:103D6000A5FB11E007F1140301221946786835F02C
:103D70000EFEF862FB6A002B06D01B491E4B40F278
:103D800083121B4809F092FBFB6A002B17D1BB6A18
:103D90005B8A9BB200221C46154607F1140022469E
:103DA0002B461749FFF7EFFBF862FB6A002B06D0A2
:103DB0000D49114B40F289120D4809F077FBFB6A5F
:103DC000002B06D107F114031946786835F0FBFD86
:103DD000F862BB6ADB68BB62BB6A002B88D1FB6AF6
:103DE00018463037BD46B0BD13EA090890EA090805
:103DF00074EA0908ECF1072058EA0908A4EA09085E
:103E0000A8EA0908B0B58EB002AF78600023FB6263
:103E10000023BB627B68002B0CD16C497B6800934C
:103E20006B4B4FF4CF726B4809F040FB40F2072315
:103E3000FB62C5E068480EF0F5F9FFF723FFB862B2
:103E400066497868FFF78CFBF862FB6A002B06D0A6
:103E50005E49634B4FF4D572624809F027FBFB6A59
:103E6000002B27D1BB6A002B12D007F118030222C6
:103E70001946786835F08BFDF862FB6A002B19D083
:103E80005249574B4FF4D972564809F00FFB11E0D5
:103E900007F1180301221946786835F078FDF862B9
:103EA000FB6A002B06D049494D4B40F2B7124D48F2
:103EB00009F0FCFAFB6A002B15D1BB6A00221C46F4
:103EC000154607F1180022462B464749FFF75BFBD2
:103ED000F862FB6A002B06D03C49414B40F2BF120E
:103EE000404809F0E3FABB6A002B52D0FB6A002B72
:103EF00010D107F118033D491846FFF731FBF8626E
:103F0000FB6A002B06D03149354B4FF4E47235483B
:103F100009F0CCFAFB6A002B12D107F1080107F176
:103F20001803BA6A184635F021FDF862FB6A002BC7
:103F300006D026492A4B4FF4E7722A4809F0B6FA10
:103F4000FB6A002B0FD107F108031846FFF7B6FEF6
:103F5000F862FB6A002B06D01C49214B4FF4EA7231
:103F6000204809F0A3FAFB6A002B12D107F10802DE
:103F700007F118031146184635F025FDF862FB6A73
:103F8000002B06D01149164B4FF4ED72154809F07D
:103F90008DFAFB6A002B10D107F1180319467868D7
:103FA00035F011FDF862FB6A002B06D007490C4B77
:103FB00040F2E1120B4809F079FA07480EF046F991
:103FC000FB6A18463037BD46B0BD00BF13EA09088A
:103FD000ACEA090850EA0908106C0520E0EA090873
:103FE00058EA090874EA0908D8EA0908DCEA090865
:103FF00080B483B000AF00237B600A4B1B683B603A
:1040000005E07B6801337B603B68DB683B603B68B5
:10401000002BF6D17B6818460C37BD465DF8047B53
:10402000704700BF9CF1072080B586B000AFF860F4
:10403000B9607A607B800023FB75BB681A46F9681B
:10404000786895F09FFB0346002B19D0B968F86893
:1040500097F04EFD3861FA683B69D018BA683B6941
:10406000D11A7B880F4A97F03DFB03461A463B69FD
:1040700013443B613A69BB689A4201D80123FB753E
:10408000FB7D83F00103DBB2002B06D00649074B12
:1040900040F20A22064809F009FAFB7D1846183753
:1040A000BD4680BDE4EA090813EA090858EA090890
:1040B00074EA0908B0B594B000AF78600023FB64DF
:1040C0007B68002B0CD109F0BDF85B495B4B40F2DB
:1040D00012225B4809F0EAF909F0B4F800BEFDE7E6
:1040E000584B1B68BB649EE000237B6107F11803FB
:1040F00000221A605A609A60DA601A615A611A7670
:104100000023FB6000233B8200237B6407F1340320
:1041100003221946786835F03AFCF864FB6C002BF2
:1041200006D04549484B4FF40772454809F0BEF99F
:10413000FB6C002B21D1BB6C1A1DBB6C1B8B07F1D8
:1041400014001D21FFF770FF0346002B13D007F169
:10415000140207F134033D491846FFF730FAF864BA
:10416000FB6C002B09D03449374B4FF409723448AB
:1041700009F09CF901E00123FB64BB6C1B7A07F199
:104180000C0211461846FFF7B3FB78647B6C002BDA
:1041900015D0FB6C002B1ED107F134037A6C2C492F
:1041A0001846FFF70CFAF864FB6C002B13D0224979
:1041B000254B4FF40D72224809F078F90BE00123EA
:1041C000FB64FB6C002B06D01B491F4B40F23A22CC
:1041D0001B4809F06BF9FB6C002B17D1BB6CDB8A19
:1041E0009BB200221C46154607F1340022462B469E
:1041F0001849FFF7C8F9F864FB6C002B06D00E498C
:10420000114B40F241220E4809F050F9FB6C002B93
:1042100006D107F134031946786835F0D4FBF86409
:10422000BB6CDB68BB64BB6C002B7FF45DAFFB6CCD
:1042300018465037BD46B0BD13EA090890EA090890
:1042400074EA09089CF1072058EA0908ECEA090811
:10425000F0EA0908F4EA0908B0B592B002AF786054
:104260000023FB630023BB637B68002B0CD18C49CC
:104270007B6800938B4B40F255228B4809F016F96E
:1042800040F20723FB6306E188480DF0CBFFFFF700
:10429000AFFEB86386497868FFF762F9F863FB6B95
:1042A000002B06D07E49834B40F26222824809F0FF
:1042B000FDF8FB6B002B11D107F1280301221946F1
:1042C000786835F064FBF863FB6B002B06D074490B
:1042D000784B4FF41A72784809F0E8F8FB6B002B22
:1042E00010D107F1280375491846FFF739F9F8632B
:1042F000FB6B002B06D06A496E4B40F26E226E4873
:1043000009F0D4F8FB6B002B29D1BB6B002B13D029
:1043100007F1180107F128030222184635F037FB90
:10432000F863FB6B002B1AD05D49624B40F2772299
:10433000614809F0BBF812E007F1180107F1280302
:104340000122184635F023FBF863FB6B002B06D0E7
:104350005349584B4FF41F72574809F0A7F8FB6BAD
:10436000002B15D1BB6B00221C46154607F1180027
:1043700022462B465249FFF706F9F863FB6B002BE8
:1043800006D047494B4B4FF421724B4809F08EF849
:10439000BB6B002B52D0FB6B002B10D107F1180325
:1043A00048491846FFF7DCF8F863FB6B002B06D092
:1043B0003B49404B40F28D223F4809F077F8FB6BB8
:1043C000002B12D107F1080107F11803BA6B184648
:1043D00035F0CCFAF863FB6B002B06D03049354B37
:1043E00040F29322344809F061F8FB6B002B0FD1A7
:1043F00007F108031846FFF75DFEF863FB6B002B1F
:1044000006D027492B4B40F299222B4809F04EF851
:10441000FB6B002B12D107F1080207F118031146BC
:10442000184635F0D0FAF863FB6B002B06D01C4918
:10443000204B40F29F22204809F038F8FB6B002BFC
:1044400012D107F1180207F128031146184635F07A
:10445000BAFAF863FB6B002B06D01149154B40F2FA
:10446000A622154809F022F8FB6B002B10D107F1AA
:1044700028031946786835F0A6FAF863FB6B002B21
:1044800006D007490B4B4FF42B720B4809F00EF87E
:1044900006480DF0DBFEFB6B18464037BD46B0BD4D
:1044A00013EA0908ACEA090850EA0908106C05206B
:1044B000F8EA090858EA090874EA0908FCEA090850
:1044C000D8EA090800EB090880B584B002AF78602B
:1044D00039607B68002B0BD108F0B4FE1649174BEE
:1044E0006322174808F0E2FF08F0ACFE00BEFDE7CB
:1044F0003B68002B0BD108F0A5FE0F490F4B64223F
:104500000F4808F0D3FF08F09DFE00BEFDE73B68B2
:104510001A787B681A707B685B68002B08D07B6810
:1045200058680023009302230022012180F05AFCE6
:1045300000BF0837BD4680BD12EB090828EB09080B
:104540003CEB090880B592B002AFF860B9607A60C0
:104550003B600023FB63BB68002B0BD108F072FEAD
:104560004849494B7822494808F0A0FF08F06AFE04
:1045700000BEFDE77B68002B0BD108F063FE4149CC
:10458000414B7922414808F091FF08F05BFE00BEE4
:10459000FDE73B68002B0BD108F054FE39493A4B3C
:1045A0007A223A4808F082FF08F04CFE00BEFDE790
:1045B000002387F82430002387F82530002387F86C
:1045C0002630BB68BB62B868FBF764FE03469BB24B
:1045D000BB857B683B633B687B6308233B7780F04C
:1045E000D3F803463B622A4B3B6107F11C037B6116
:1045F0004FF47A73BB610121002080F085FF07F141
:10460000100207F124031946F8687BF028FC0346E2
:1046100087F83B3097F83B30002B24D14FF47A7267
:104620000121012080F0EEFA0346FB63FB6B002BB7
:104630000BD114494FF47A730093164B902216480D
:1046400008F034FF0023FB6316E03B7F002B13D000
:104650000C493B7F0093114B95220F4808F026FF31
:104660000023FB6308E0074997F83B3000930C4BAD
:104670009B22094808F01AFFFB6B18464037BD46DD
:1046800080BD00BF12EB090828EB09083CEB0908C4
:10469000C944000844EB09088CEB090890EB0908B1
:1046A000D0EB090880B584B002AF0B4B186800232B
:1046B00000930123002210217BF084FF78607B6847
:1046C00003F01003002B14BF01230023DBB21846B4
:1046D0000837BD4680BD00BFA488002080B592B0D9
:1046E00000AF07F1240320220021184697F06AF951
:1046F0003B4620220021184697F064F90023FB6214
:10470000BF2387F83030404B7B62404BBB62404B4D
:10471000BB63404B7B6307F1240319463E4816F008
:10472000AFFF3D4816F0F6FF07F1470319463A4838
:1047300017F00BF897F84730BC2B02D04FF0FF333F
:104740005EE0354817F017F805207EF019FB07F1F9
:1047500046031946304817F0BBF897F84630012B4E
:10476000F2D105207EF00CFB07F1460319462A48DA
:1047700017F02EF997F84630012BF2D10023BB60D9
:10478000BB233B73204B3B60204B7B60204B7B610A
:10479000204B3B613B461946204819F085F91F48DC
:1047A00019F0ECF907F1230319461C4819F001FA36
:1047B00097F82330B32B02D04FF0FF3320E0174897
:1047C00019F06FFA154819F00AFA05207EF0D8FAA8
:1047D00007F146031946114819F04DFA97F846308B
:1047E000012BF2D105207EF0CBFA07F146031946E2
:1047F0000A4819F0A3FA97F84630012BF2D10123A9
:1048000018464837BD4680BDD97E0108317F010872
:10481000C17F01086D7F0108F80700202C080020E7
:1048200080B582B000AF78607B68083319460C48C9
:1048300016F0C6FF7B681946094817F05FF87B68D9
:104840000C331946074819F0EEF97B680433194612
:10485000044819F04AFA012318460837BD4680BDBE
:10486000F80700202C0800202DE9B04FADF5567D4B
:1048700008AF07F54E73A3F54D7318600023C7F812
:104880002C330023C7F834330023C7F8283307F547
:104890004E73A3F5457300221A600433FC220021F5
:1048A000184697F08FF80023C7F83033FFF716FF4C
:1048B000C7F82C03D7F82C33012B09D06F49704B64
:1048C00040F229126F4808F0F1FD00207EF0E0F977
:1048D00007F124034FF48072194600200CF02CFBE2
:1048E000C7F83003D7F83033002B09D007F1240381
:1048F0004FF480726449184697F08AF8C7F830037D
:10490000D7F83033002B03D0D7F83033FF2B09D939
:104910005A495E4B4FF49B725A4808F0C7FD012379
:10492000C7F8343301F02AFC02F008FCC7F828036A
:1049300097E007F54E73A3F546734FF47A721A6049
:1049400007F1180318467FF035FC07F108031846F5
:10495000FFF766FFC7F82C03D7F82C33012B07D0DD
:1049600046494B4B4FF4A572464808F09FFD65E061
:10497000FFF798FE0346012B60D10023C7F82433CC
:1049800007F54E73A3F54C731B681846FBF7EEFD55
:1049900004460D4607F54E73A3F54C739B68184605
:1049A000FBF7E4FD8046894607F54E73A3F54C738B
:1049B0005B681846FBF7DAFD82468B4607F54E73B7
:1049C000A3F54C73DB681846FBF7D0FD02460B4697
:1049D00007F59270CDE90623CDE904ABCDE9028954
:1049E000CDE900452B4A4FF4007196F07BFEC7F8E5
:1049F0002403D7F82433B3F5007F0CDAD7F8243337
:104A000007F5927207F12401D7F82803FFF79AFD02
:104A1000C7F82C0312E0D7F82433002B07DD174921
:104A20001D4B4FF4AD72174808F040FD06E01349E6
:104A30001A4B4FF4AF72134808F038FD07F120020B
:104A400007F11803114618467FF0F8FB0346002BC8
:104A500007D107F54E73A3F546731B6818467EF021
:104A60008FF9D7F83433002B3FF463AF00BF00BF9A
:104A700007F54E77BD46BDE8B08F00BF12EB0908C1
:104A8000FCEB09088CEB09082CEC090840EC090840
:104A900064EC090888EC0908CCEC0908E8EC090882
:104AA00080B586B002AF786039607B68FB603B6898
:104AB000002B0BD108F0C6FB0D490E4B6A220E48A5
:104AC00008F0F4FC08F0BEFB00BEFDE73B681B7875
:104AD000BB60FB68002B07D0002300930323BA6858
:104AE0000121F86880F07EF900BF1037BD4680BD17
:104AF0000AED090824ED090838ED090880B592B0DF
:104B000002AFF860B9607A603B600023BB63BB68AA
:104B1000002B0BD108F096FB5449554B8422554885
:104B200008F0C4FC08F08EFB00BEFDE77B68002B9C
:104B30000BD108F087FB4D494D4B85224D4808F0BD
:104B4000B5FC08F07FFB00BEFDE73B68002B0BD1F6
:104B500008F078FB4549464B8622464808F0A6FCFB
:104B600008F070FB00BEFDE74FF6FF71B86896F0E5
:104B7000BFFFB863002387F82030002387F8213077
:104B8000002387F82230BB687B62BB6B9BB23B85FE
:104B90007B68FB623B683B63374B7B617FF0F4FDD6
:104BA0000346BB61C823FB6197F82030002B03D07C
:104BB0007FF0EAFD0346BB610121002080F0A4FCE8
:104BC00007F1140207F120031946F8687BF047F952
:104BD000034687F83F3097F83F30002B32D100234F
:104BE0003B6100237B6307F110034FF47A7200925C
:104BF0004FF0FF324FF0FF31012080F06FF8786303
:104C00007B6B002B12D03B6987F83F3097F83F3021
:104C1000002B20D0154997F83F300093174BBA224C
:104C2000174808F043FC00237B6314E00F494FF45E
:104C30007A730093134BC122114808F037FC00230C
:104C40007B6308E0094997F83F3000930E4BC82278
:104C50000B4808F02BFC97F83F30002B0CBF0123CA
:104C60000023DBB218464037BD4680BD0AED090877
:104C700024ED090838ED0908A14A000840ED0908AB
:104C800080ED090884ED0908CCED090880B592B0E3
:104C900000AF07F1240320220021184696F092FE6F
:104CA0003B4620220021184696F08CFE0023FB6232
:104CB000D72387F830303A4B7B623A4BBB623A4B92
:104CC000BB633A4B7B6307F124031946384817F05E
:104CD00007FD374817F06EFD07F1470319463448C2
:104CE00017F0FFFD97F847306B2B02D04FF0FF33E2
:104CF00051E02F4817F00BFE2D4817F0CAFE052093
:104D00007EF03EF807F146031946294817F0BCFF2C
:104D100097F84630012BF2D105207EF031F807F1EB
:104D200046031946224817F0C5FF97F84630012B75
:104D3000F2D10023BB603D233B73194B3B60194B01
:104D40007B60194B7B61194B3B613B461946194807
:104D500017F0A6F9174817F00BFA07F123031946C5
:104D6000144817F042FA97F82330402B02D04FF046
:104D7000FF3310E00F4817F04EFA05207EF000F8E0
:104D800007F1460319460B4817F0C6FA97F8463064
:104D9000012BF2D1012318464837BD4680BD00BF24
:104DA000D97E0108317F0108C17F01086D7F0108AC
:104DB0006008002098080020F0B5ADF5077D08AF29
:104DC00007F5FC73A3F5F67318600023C7F8EC3100
:104DD0000023C7F8F4310023C7F8E83107F5FC7366
:104DE000A3F5F27300221A600433FC220021184656
:104DF00096F0E8FD0023C7F8E4310023C7F8F0314E
:104E0000FFF744FFC7F8EC01D7F8EC31012B09D0CC
:104E10005349544B40F22B12534808F047FB0020F3
:104E20007DF036FF002100200CF0CAF8C7F8E4013D
:104E3000D7F8E431002B03D10123C7F8F4310AE09D
:104E400007F11400D7F8E431484A4FF4807196F026
:104E500049FCC7F8F001D7F8F031002B04DDD7F892
:104E6000F031B3F5807F09DD3D49414B4FF49E722F
:104E70003D4808F01BFB0123C7F8F43101F07EF92F
:104E800002F05CF9C7F8E8015DE00023C7F8E03103
:104E90003849394817F0A6FD3849374817F082FEDF
:104EA0003749384817F0E7F9D7F8E031002B46D1F9
:104EB000304B1B68BB602F4B5B682E4A92687A6050
:104EC0002E4909682D4840682C4CA4682C4D2D684B
:104ED0002B4E76682A4A926807F58A7C07920696D6
:104EE00005950494039002917A6801920093BB683F
:104EF000254AC821604696F0F5FBC7F8DC01D7F8D3
:104F0000DC31C72B1BDC01F0A7F90346002B16D0C0
:104F1000D7F8DC3107F58A7207F11401D7F8E801F8
:104F2000FFF7ECFDC7F8EC01D7F8EC31012B06D008
:104F30000B49164B40F275120B4808F0B7FA4FF4C4
:104F4000FA707DF01DFFD7F8F431002B9DD0D7F813
:104F5000E40181F0F9FA00BF07F5FE77BD46F0BD28
:104F60000AED0908F8ED090880ED090824EE0908A2
:104F70003CEE0908CC08002060080020D80800207A
:104F8000E40800209808002064EE0908F4EE0908FF
:104F900080B584B002AF786039607B681B68002BF5
:104FA0000AD07B6818683B681B781A460023009378
:104FB000032300217FF016FF00BF0837BD4680BDE8
:104FC00080B584B002AF786039603B681B69632BA1
:104FD0000DD83B68D9683B681B691A46104896F0A3
:104FE0001AFF3B681B690E4A0021D1540CE03B6854
:104FF000DB680B4A1046194664231A4696F00BFFED
:10500000074B002283F863200649054B0093064BAB
:10501000E322064808F04AFA00BF0837BD4680BDC3
:10502000340900202AEF090840EF090868EF090851
:1050300090B587B002AF03463960FB71164B186814
:10504000FA7900230093154B396802F01DFD0346E1
:10505000FB73FB7B002B08D01149FB7B0093114BAA
:10506000F722114808F022FA0DE00D4C3868FBF7E2
:1050700011F902463B68019300920C4BFB2221463A
:105080000B4808F013FAFB7B002BD7D1FB7B1846AB
:105090001437BD4690BD00BF30090020C14F000845
:1050A0002AEF09086CEF09089CEF0908A0EF09082E
:1050B00068EF090880B594B002AFB9607A603B60D0
:1050C0000346FB7307F12C0300221A605A609A60B2
:1050D000DA601A6107F1240300221A605A6007F1AE
:1050E000180300221A605A609A6000237B61002135
:1050F000002080F009FAFB7B87F82C30BB683B630B
:10510000B868FBF7C7F803469BB2BB867B68BB63F6
:105110003B68FB637FF038FB03467B624FF4FA7316
:105120003B621A4BBB6107F12403FB61184B1B6800
:1051300007F1180207F12C0118467AF090FE034699
:1051400087F8473097F84730002B14D107F1140344
:105150004FF0FF3200920022002100207FF0BEFDC0
:1051600038643B6C012B03D17B6987F8473002E040
:10517000042387F8473097F84730002BD6D197F8AB
:10518000473018464837BD4680BD00BF914F0008E4
:105190003009002080B5A8B004AF78600023C7F8BC
:1051A0008C300023C7F888300023C7F884300123EF
:1051B000C7F880300023FB670023BB6000F0DEFFF0
:1051C00001F0BCFF03466C4A13606B4B1B68002B5D
:1051D0000CD108F037F86949694B4FF4A872694857
:1051E00008F064F908F02EF800BEFDE701F002F8BF
:1051F0006249654B4FF4AA72644808F057F907F109
:105200000803194600200BF0DBFEF867FB6F604ACD
:105210004021604896F066FAD7F88030012B16D10D
:105220005C490120FFF704FF034687F87B3097F8BD
:105230007B30002B0BD05149564B0093564B40F21C
:105240006112564808F032F90023C7F88030D7F8C9
:105250008030012B40F08880D7F88C30013303F088
:10526000010387F87A30D7F88C30013307F10C004E
:105270004B4A642196F036FA03467B677B6F642BBA
:105280000CD907F0DFFF3D493D4B40F275123D4818
:1052900008F00CF907F0D6FF00BEFDE7374997F894
:1052A0007A3007F10C0203927A6F02920193394B24
:1052B00000933C4B40F27712344808F0F7F807F1BE
:1052C0000C0297F87A007B6F3249FFF7F3FE034632
:1052D00087F87B3097F87B30002B17D1D7F88830D0
:1052E0000133C7F88830254997F87A30D7F88420F9
:1052F0000392D7F888200292264A019200932A4B03
:1053000040F27F12214808F0D1F816E0D7F8843037
:105310000133C7F88430194997F87A30D7F88420D8
:105320000392D7F8882002921A4A019200931F4BE9
:105330004FF4C272194808F0B9F87EF0A3F801469C
:105340001B4BA3FB0123DA0913461B029B1ACA1A43
:1053500002F5FA633B67386F7DF012FDD7F88C30A9
:105360000133C7F88C3077E700207DF091FC00BF57
:105370009037BD4680BD00BF300900202AEF0908E4
:10538000BCEF0908D0EF0908D8EF090868EF090851
:1053900018F00908F008002028F009089CEF090817
:1053A0004CF009086CF00908B0F00908FCF0090895
:1053B0008180808090B58BB004AF78600123FB754D
:1053C0007B68002B0BD107F03DFF8D498D4BFC22F4
:1053D0008D4808F06BF807F035FF00BEFDE77B68ED
:1053E00000221A6000200BF067FD0346FF2B1ED839
:1053F00000233B61002100200BF0E2FD02467B68A8
:105400001A607B681B68002B0AD07B681C68002030
:105410000BF052FD03461946204696F069FB3861B1
:105420003B69FE2B03D83B69DAB27B681A717B6853
:105430001B68002B00F0DD807B681B79002B00F0DF
:10544000D8800023FB737B681B791A339AB27B6880
:105450009A817B689B89184680F09EFF02467B6894
:105460009A607B6818687B681C797B689B687A689F
:10547000928979680C310391029201930023009381
:10548000624B2246014606206DF058FA03461A4642
:10549000FB7B1343FB737B681B7920339AB27B68D9
:1054A0009A827B689B8A184680F076FF02467B686A
:1054B0001A617B6818687B681C797B681B697A684D
:1054C000928A796814310391029201930023009328
:1054D0004E4B224601460A206DF030FA03461A462A
:1054E000FB7B1343FB737B681B7923339AB27B6886
:1054F0009A837B689B8B184680F04EFF02467B6840
:105500009A617B6818687B681C797B689B697A68FC
:10551000928B79681C3103910292019300230093CE
:105520003A4B2246014607206DF008FA03461A4618
:10553000FB7B1343FB737B681B7923339AB27B6835
:105540009A847B689B8C184680F026FF02467B6815
:105550001A627B6818687B681C797B681B6A7A68AA
:10556000928C796824310391029201930023009375
:10557000264B2246014608206DF0E0F903461A4604
:10558000FB7B1343FB737B681B791A339AB27B68EE
:105590009A857B689B8D184680F0FEFE02467B68EC
:1055A0009A627B6818687B681C797B689B6A7A685A
:1055B000928D79682C31039102920193002300931C
:1055C000124B2246014603206DF0B8F903461A46F5
:1055D000FB7B1343FB73FB7DFA7B002A0CBF01228C
:1055E0000022D2B21340002B14BF01230023FB750D
:1055F00001E00023FB75FB7D18461C37BD4690BDBE
:105600005EF1090874F1090888F1090890F10908A8
:1056100080B586B002AF78600023FB737B68186C9E
:105620007B6819697B680093294B012202F02CFAF0
:105630000346FB73FB7B002B0AD026497B681B6962
:105640000093254B40F26112244807F02FFF18E029
:105650007B68186C7B6899697B680093204B0122FA
:1056600002F012FA0346FB73FB7B002B09D01949A9
:105670007B689B690093184B40F26D12174807F046
:1056800015FFFB7B002B18D17B68186C7B68196AAF
:105690007B680093134B012202F0F6F90346FB737B
:1056A000FB7B002B09D00B497B681B6A00930A4BDC
:1056B00040F27B12094807F0F9FEFB7B002B0CBF80
:1056C00001230023DBB218461037BD4680BD00BF62
:1056D000E95600085EF1090894F10908B8F10908D3
:1056E000E5580008C15A000880B58CB004AF786056
:1056F00039600023FB610023BB610023FB600023B2
:10570000BB600123FB757B683B613B68002B0CD1C0
:1057100007F098FD6149624B4FF4C872614807F089
:10572000C5FE07F08FFD00BEFDE73B68DB68002B80
:105730000CD107F087FD5949594B40F29112594855
:1057400007F0B4FE07F07EFD00BEFDE753493B685D
:105750001B693A68D26801920093534B40F293124E
:10576000524807F0A3FE3B68DA683B681B6919469C
:10577000104673F07DFE0346FB75FB7D012B07D0C1
:1057800046494B4B40F2AD124A4807F08FFE81E08C
:105790003B68D8683B6819690023029307F1080346
:1057A000019307F10C0300930723434A74F0CDFAE9
:1057B0000346FB75FB7D012B07D038493F4B40F278
:1057C000BB123C4807F072FE64E0FB680A2200212D
:1057D000184694F0F1FFF861394B1B68FA699A4258
:1057E0000CD82E49364B1B680193FB690093354B4F
:1057F0004FF4E572344807F059FE4BE02749BB6887
:10580000FA6801920093314B4FF4E872304807F088
:105810004DFE2B4AFB6913603B68D8683B681969E9
:105820000023029307F10803019307F10C0300938F
:105830000D23284A74F089FA0346FB75FB7D012B82
:1058400007D01649244B40F2E1121F4807F02EFE04
:1058500020E0FB680A220021184694F0ADFFB861F1
:105860000E49BB6900931D4B4FF4F472184807F0C2
:105870001DFE3B69BA691A63BB69012B05D1002281
:10588000402117481BF02CF904E001224021144864
:105890001BF026F900BF2037BD4680BD5EF1090828
:1058A00074F1090888F10908BCF10908E0F1090858
:1058B000E4F10908B8F1090804F209080CF2090832
:1058C0009809002038F2090880F2090884F20908D2
:1058D000B0F20908B4F20908C4F20908F0F20908A4
:1058E000001C024280B58CB004AF786039600023A0
:1058F0003B610023FB600023BB610123FB777B68D6
:105900007B617B68002B0CD107F09CFC5E495F4BF0
:1059100040F206225E4807F0C9FD07F093FC00BE86
:10592000FDE73B68002B0CD107F08CFC5649574B28
:1059300040F20722564807F0B9FD07F083FC00BE8D
:10594000FDE73B68DB68002B0CD107F07BFC4E4980
:105950004E4B4FF402724E4807F0A8FD07F072FC60
:1059600000BEFDE748493B681B693A68D26801926E
:105970000093484B40F20A22474807F097FD3B68E6
:10598000DA683B681B691946104673F071FD0346DF
:10599000FB77FB7F012B07D03B49404B40F22B228A
:1059A0003F4807F083FD11E03B68D8683B68196900
:1059B0000023029307F10C03019307F110030093F6
:1059C0000B23384A74F0C1F90346FB77FB7F012BA8
:1059D00007D02D49344B40F23A222F4807F066FD9C
:1059E0004EE03B690A220021184694F0E5FEB861BA
:1059F0007B699B6BBA699A4209D02349BB690093C2
:105A00002A4B4FF41272244807F050FD38E01E492B
:105A10007B699B6B0093264B4FF41372254807F06C
:105A200045FD3B68D8683B6819690023029307F17C
:105A30000C03019307F11003009316231E4A74F020
:105A400084F90346FB77FB7F012B07D00E491B4BE4
:105A50004FF41672124807F029FD08E03B690A224C
:105A60000021184694F0A8FE02467B695A637B69C0
:105A7000D86B002300930223002200217FF0B2F9AB
:105A800000BF2037BD4680BD5EF1090874F10908EA
:105A900088F1090810F30908E0F10908E4F10908A0
:105AA000B8F1090838F3090844F3090884F3090830
:105AB000C0F30908B0F20908F8F30908C4F20908AC
:105AC00080B58CB004AF786039600123FB77002388
:105AD0003B610023FB600023BB617B687B617B68CB
